S01B000052544F535F416C61726D5F5379735F52544F532E7372656330
S11300000C942A000C9447000C9447000C9447006D
S11300100C9447000C9447000C9447000C9415076B
S11300200C9447000C9447000C9447000C94470030
S11300300C9447000C9447000C9447000C94470020
S11300400C9447000C9447000C9447000C94470010
S11300500C94470011241FBECFE5D8E0DEBFCDBF0E
S113006010E0A0E6B0E0E0E9FDE102C005900D92E9
S1130070A03FB107D9F725E0A0EFB0E001C01D9281
S1130080AE35B207E1F70E9494040C94C60E0C94AA
S11300900000CF93DF931F92CDB7DEB719820E9481
S11300A0200281E00E94C60382E690E00E94DE0303
S11300B02FEF89E698E1215080409040E1F700C09D
S11300C000001FEF0E947B0289838F3F71F01F3F66
S11300D061F420E040E050E0BE016F5F7F4F80910B
S11300E0F2009091F3000E944808198182E390E0A5
S11300F00E94A70CE7CFCF93DF931F92CDB7DEB753
S1130100198281E00E94C6038CE690E00E94DE031F
S11301102FEF89E698E1215080409040E1F700C03C
S1130120000081E00E94C60383E790E00E94DE03A2
S113013010E000E06894FF24F1F820E048E853E17F
S1130140BE016F5F7F4F8091F2009091F3000E9497
S1130150E908813009F05CC01130A9F020F01230B8
S113016009F44CC0EACF8981833239F781E00E94D7
S1130170C6038BE790E00E94DE0361E081E00E9409
S1130180CB0311E0DACF8981833279F0833401F52E
S1130190002399F2015080E10E94C60380E20E948C
S11301A0D90380E10E94C603C8CFE02FF0E0EC50F1
S11301B0FF4F108220E040E050E060E070E080916A
S11301C0F0009091F1000E9448081F2D00E0B5CF87
S11301D0093008F0B2CFE02FF0E0EC50FF4F8083FD
S11301E00F5F0E94D90388EC90E00E94A70C80E185
S11301F00E94C6038AE20E94D9039FCF81E00E9435
S1130200C60383E790E00E94DE0310E000E095CF90
S1130210112309F492CF81E00E94C60383E790E0A2
S11302200E94DE0310E000E088CF20E040E050E0D0
S113023060E070E08091F0009091F1000E94E90884
S113024081E00E94C60385E890E00E94DE032FEF60
S113025089E698E1215080409040E1F700C0000019
S113026020E04FEF5FEF60E070E08091F00090914C
S1130270F1000E94E9086BEA70E084EF90E00E94CC
S1130280BD0E892B41F481E00E94C6038EE890E004
S11302900E94DE03E5CF81E00E94C6038DE990E071
S11302A00E94DE03DDCF0F931F93CF93DF93EC0106
S11302B00E94670B8091FE0081111DC0E3E0F1E014
S11302C088E091E09183808313821282EFEFF0E063
S11302D087EE93E09383828311821082A7E0B1E0DA
S11302E014969C938E9313971296FC93EE93119706
S11302F081E08093FE00209709F45FC09E012C5F8B
S11303003F4F2396C63ED34008F05AC0E091030104
S1130310F0910401A3E0B1E002C0DF01FC0182819D
S113032093818217930720F4808191810097A9F724
S1130330C0E0EF3FFC0709F446C0CD91DC91119772
S11303408E010C5F1F4F808191818D939C938281DC
S11303509381821B930B8930910510F1BF01620FC9
S1130360731FDB0113969C938E931297338322831E
S113037012964D915C91139783E091E001C0CD01F9
S1130380EC01A881B98112962D913C911397241701
S11303903507A8F3EB01B983A883DC016D937C9343
S11303A0809160009091610022813381821B930BC4
S11303B0909361008093600008C000E010E005C0E5
S11303C000E010E002C000E010E00E94280CC80128
S11303D0DF91CF911F910F9108950F931F93CF93A6
S11303E0DF93009741F1EC018C01045011090E9444
S11303F0670BF80142815381A3E0B1E001C0DF0142
S1130400ED91FC9111972281338124173507B8F3BC
S11304102497F983E8830D931C9320916000309115
S113042061008A819B81820F931F90936100809366
S113043060000E94280CDF91CF911F910F910895C5
S1130440CF92DF92EF92FF920F931F93CF93DF939C
S113045000D000D0CDB7DEB70CEC10E00F2EF4EDD9
S1130460CF2EF0E0DF2EF02DEE24E394F12CC70123
S1130470F801018002C0880F991F0A94E2F78B8368
S11304808C83908199838A83CE0101960E94D20441
S11304900E5F1F4F0C151D0551F704EC10E00F2ED5
S11304A0FCECCF2EF0E0DF2EF02DEE24E394F12CC3
S11304B01B82C701F801018002C0880F991F0A94AA
S11304C0E2F78C83908199838A83CE0101960E94FE
S11304D0D2040E5F1F4F0C151D0551F70F900F909E
S11304E00F900F90DF91CF911F910F91FF90EF909C
S11304F0DF90CF900895EF92FF920F931F93CF93C5
S1130500DF93CDB7DEB729970FB6F894DEBF0FBEE1
S1130510CDBF19821A821B828FEF8C831982898145
S1130520843008F0E8C001E010E0FF24F3946894FC
S1130530EE24E2F8898190E0039683709078992301
S113054024F401978C6F9F6F0196880F991FFC010B
S1130550E453FF4F80818F83898190E003968370F9
S11305609078992324F401978C6F9F6F0196880FDC
S1130570991FFC01E453FF4FC801018002C0880F9A
S1130580991F0A94E2F78887898190E00396837023
S11305909078992324F401978C6F9F6F0196880FAC
S11305A0991FFC01E453FF4FC801018002C0880F6A
S11305B0991F0A94E2F78987CE0107960E943105B4
S11305C0E981F0E0EE0FFF1FE453FF4F80818F833A
S11305D0E981F0E0EE0FFF1FE453FF4FC8010180F3
S11305E002C0880F991F0A94E2F788871986CE0102
S11305F007960E9431051B821A828A81843028F56D
S1130600EA81F0E0EE0FFF1FEC53FF4F80818D83F2
S1130610EA81F0E0EE0FFF1FEC53FF4F81818E83E0
S1130620CE0105960E9467053A812B818F2590E0C3
S113063002C0880F991F3A95E2F7822B8B838A8137
S11306408F5F8A838A818430D8F21A828A818430C7
S113065008F04AC08B812A8190E0A80102C0440FAF
S1130660551F2A95E2F784179507B9F5EA81898120
S1130670F0E0EE0FFF1FEE0FFF1FEC54FF4FE80FEB
S1130680F11D80818C83E981F0E0EE0FFF1FE453BC
S1130690FF4F80818F83E981F0E0EE0FFF1FE45369
S11306A0FF4FC801018002C0880F991F0A94E2F726
S11306B08887E981F0E0EE0FFF1FE453FF4FC80184
S11306C0018002C0880F991F0A94E2F78987CE013E
S11306D007960E943105EA82E9828A818F5F8A83C4
S11306E08A81843008F4B6CF89818F5F89838981B8
S11306F0843008F41FCF8C8129960FB6F894DEBF9E
S11307000FBECDBFDF91CF911F910F91FF90EF905E
S11307100895C39A85E08A95F1F70000C3988FE69F
S113072097E10197F1F700C000000895CF93C82F17
S1130730882314F4DF9A01C0DF98C6FF02C0DE9A52
S113074001C0DE98C5FF02C0DD9A01C0DD98C4FF78
S113075002C0DC9A01C0DC980E948903C3FF02C076
S1130760DF9A01C0DF98C2FF02C0DE9A01C0DE98A2
S1130770C1FF02C0DD9A01C0DD98C0FF02C0DC9A4F
S113078001C0DC980E948903CF910895C198C29852
S11307900E9496030895811105C08FE7860F0E9479
S11307A0C6030895813021F48FEB860F0E94C6039F
S11307B00895C19AC2980E9496030895CF93DF9337
S11307C0EC018881882331F021960E94D903899114
S11307D08111FBCFDF91CF9108958FE295E70197C7
S11307E0F1F700C00000B99ABA9ABB9AD79AD69A80
S11307F0D59AD49A83E30E94C60382E30E94C60377
S113080088E20E94C6038CE00E94C60381E00E9435
S1130810C6030895FC010396928381832FEF3FEF73
S113082034832383968385839087878310820895F6
S1130830FC01118610860895CF93DF939C01FB0180
S1130840DC011196CD91DC911297D383C2838C8104
S11308509D81958384838C819D81DC0113967C9397
S11308606E9312977D836C8331872087F901808191
S11308708F5F8083DF91CF910895CF93DF93EB0156
S1130880488159814F3F2FEF520721F4FC01A78182
S1130890B0850DC0DC01139601C0DF011296ED9105
S11308A0FC9113972081318142175307B0F71296B8
S11308B0ED91FC911397FB83EA83D583C483BD83B5
S11308C0AC831396DC93CE93129799878887FC01A7
S11308D020812F5F2083DF91CF910895CF93DF9301
S11308E0FC01A085B185C281D381848195819D83DA
S11308F08C83C481D581828193819B838A83119661
S11309008D919C911297E817F90731F484819581B0
S113091012969C938E931197118610868C91815018
S11309208C93DF91CF9108950E94ED0384ED90E0C4
S11309300E94DE0340E061E08AE00E941B0890937D
S1130940F3008093F20043E060E081E00E941B0822
S11309509093F1008093F000E12CF12C01E020E071
S113096030E048EC50E06AED70E08BE790E00E94E4
S11309702C0A02E020E030E048EC50E06EED70E03C
S113098089E490E00E942C0A03E020E030E048EC87
S113099050E065EE70E085E191E00E942C0A0E942F
S11309A03D0BFFCFFC0180818130E1F030F08230DB
S11309B071F1833009F440C008952AB38181982FDE
S11309C09095292392819823822F892B8ABB2BB35C
S11309D08181982F9095292393819823822F892BA5
S11309E08BBB089527B38181982F909529239281F9
S11309F09823822F892B87BB28B38181982F9095C8
S1130A00292393819823822F892B88BB089524B3AB
S1130A108181982F9095292392819823822F892B65
S1130A2084BB25B38181982F9095292393819823A2
S1130A30822F892B85BB089521B38181982F9095AE
S1130A40292392819823822F892B81BB22B3818110
S1130A50982F9095292393819823822F892B82BBE9
S1130A600895FC019081913089F028F09230C9F00A
S1130A70933011F108952BB38181982F90952923F8
S1130A8092819823822F892B8BBB089528B381816F
S1130A90982F9095292392819823822F892B88BBA4
S1130AA0089525B38181982F9095292392819823C5
S1130AB0822F892B85BB089522B38181982F90952D
S1130AC0292392819823822F892B82BB0895FC01CC
S1130AD090819130C9F028F0923049F19330D1F1EE
S1130AE04CC029B3418181E090E0042E02C0880FFC
S1130AF0991F0A94E2F730E08223932302C096956B
S1130B0087954A95E2F7089526B3418181E090E004
S1130B10042E02C0880F991F0A94E2F730E0822362
S1130B20932302C0969587954A95E2F7089523B3D7
S1130B30418181E090E0042E02C0880F991F0A943D
S1130B40E2F730E08223932302C0969587954A9575
S1130B50E2F7089520B3418181E090E0042E02C0C1
S1130B60880F991F0A94E2F730E08223932302C08E
S1130B70969587954A95E2F7089580E0089531E1C6
S1130B80FC013083319722E220833197A3E3A083D1
S1130B90319760833197708331971082319760E881
S1130BA0608331971082319762E06083319763E00C
S1130BB06083319764E06083319765E060833197A7
S1130BC066E06083319767E06083319768E0608313
S1130BD0319769E06083319760E1608331973083B6
S1130BE0319732E13083319733E13083319734E107
S1130BF03083319735E13083319736E13083319753
S1130C0037E13083319738E13083319739E13083EC
S1130C10319730E23083319731E23083319720834A
S1130C20319723E220833197408331975083319762
S1130C3026E22083319727E22083319728E220831C
S1130C40319729E22083319720E32083319721E3F0
S1130C502083869708951BBC8CE78ABD8BE08EBDEC
S1130C6089B7806189BFA0915C05B0915D05CD9184
S1130C70CDBFDD91DEBFFF91EF91DF91CF91BF91A9
S1130C80AF919F918F917F916F915F914F913F9120
S1130C902F911F910F91FF90EF90DF90CF90BF9015
S1130CA0AF909F908F907F906F905F904F903F9008
S1130CB02F901F900F900FBE0F90089581E008951C
S1130CC00F920FB6F8940F921F9211242F923F9215
S1130CD04F925F926F927F928F929F92AF92BF9248
S1130CE0CF92DF92EF92FF920F931F932F933F9334
S1130CF04F935F936F937F938F939F93AF93BF9320
S1130D00CF93DF93EF93FF93A0915C05B0915D05C2
S1130D100DB60D920EB60D920E94F80CA0915C05D2
S1130D20B0915D05CD91CDBFDD91DEBFFF91EF9117
S1130D30DF91CF91BF91AF919F918F917F916F91EF
S1130D405F914F913F912F911F910F91FF90EF90E1
S1130D50DF90CF90BF90AF909F908F907F906F90D7
S1130D605F904F903F902F901F900F900FBE0F9069
S1130D7008950F920FB6F8940F921F9211242F9298
S1130D803F924F925F926F927F928F929F92AF9217
S1130D90BF92CF92DF92EF92FF920F931F932F9304
S1130DA03F934F935F936F937F938F939F93AF93EF
S1130DB0BF93CF93DF93EF93FF93A0915C05B09122
S1130DC05D050DB60D920EB60D920E946D0B81114C
S1130DD00E94F80CA0915C05B0915D05CD91CDBF4A
S1130DE0DD91DEBFFF91EF91DF91CF91BF91AF9184
S1130DF09F918F917F916F915F914F913F912F912F
S1130E001F910F91FF90EF90DF90CF90BF90AF9024
S1130E109F908F907F906F905F904F903F902F9016
S1130E201F900F900FBE0F9008950E94B906189559
S1130E300F931F93CF93DF93EC01042F1A8D4C8DE6
S1130E4041110CC088819981892B09F042C08A81A3
S1130E509B810E94620E1B821A8242C0011117C03C
S1130E6050E08C819D810E94B40E2C8D8C819D81DB
S1130E70820F911D9D838C832A813B818217930766
S1130E8050F1888199819D838C8380E029C050E052
S1130E908E819F810E94B40E8C8D90E091958195F6
S1130EA091092E813F81280F391F3F832E8348816A
S1130EB059812417350730F42A813B81820F931F0F
S1130EC09F838E83023049F4112349F0115080E04E
S1130ED007C080E005C080E003C080E001C080E07E
S1130EE01F5F1A8FDF91CF911F910F910895FC011D
S1130EF0448D4423A9F050E026813781240F351F07
S1130F0037832683828193812817390720F08081D3
S1130F10918197838683CB01668177810E94B40E89
S1130F200895EF92FF920F931F93CF938C010FB606
S1130F30F8940F92FC01C68D1C16ACF481898111C2
S1130F4006C011C0F8018189811105C00CC0780167
S1130F50F1E1EF0EF11CC7010E94700D81110E9496
S1130F60FC0DC15079F78FEFF801868F0F900FBEFB
S1130F700FB6F8940F92C58D1C16ACF480858111C0
S1130F8006C011C0F8018085811105C00CC078012C
S1130F90F8E0EF0EF11CC7010E94700D81110E9450
S1130FA0FC0DC15079F78FEFF801858F0F900FBEBC
S1130FB0CF911F910F91FF90EF900895CF93DF93FE
S1130FC0EC010FB6F8940F92488159812C8D30E0D2
S1130FD07B8D729FC001739F900D1124FA01E80F5D
S1130FE0F91FFB83EA831A8E5D834C83821B930B68
S1130FF0840F951F9F838E838FEF8D8F8E8F61114A
S11310000CC08885882389F0CE0108960E94700D53
S1131010882359F00E94600608C0CE0108960E94F9
S11310200A04CE0141960E940A040F900FBE81E08B
S1131030DF91CF9108950F931F93CF93DF93082FE0
S1131040162F6623C1F0869FC00111244F960E947B
S11310505301EC01009741F415C00B8F1C8F61E024
S1131060CE010E94DE070EC04F9699838883F5CF88
S1131070D983C883F2CF8FE190E00E945301EC0141
S1131080892BB1F7CE01DF91CF911F910F91089574
S11310909F92AF92BF92CF92DF92EF92FF920F9303
S11310A01F93CF93DF9300D000D01F92CDB7DEB74C
S11310B08C016B015D834C83A22EB12C99249394F3
S11310C07C0188E0E80EF11C0FB6F8940F92F80149
S11310D0928D838D981718F0F2E0AF1219C04A2D43
S11310E0B601C8010E941807F8019189992349F0B3
S11310F0C80141960E94700D882331F00E94600659
S113110003C081110E9460060F900FBE81E050C0A1
S11311108C819D81892B21F40F900FBE80E048C003
S1131120B11005C0CE0101960E94B80DB92C0F90E4
S11311300FBE0E94670B0FB6F8940F92F801858DCD
S11311408F3F09F4158EF801868D8F3F09F4168EB2
S11311500F900FBEBE016C5F7F4FCE0101960E94BF
S1131160C30D81111FC00FB6F8940F92F801928D30
S11311700F900FBE838D98130FC06C817D81C701C2
S11311800E945E0DC8010E9491070E94280C8111E3
S11311909BCF0E94600698CFC8010E9491070E94CD
S11311A0280C92CFC8010E9491070E94280C80E06D
S11311B00F900F900F900F900F90DF91CF911F9190
S11311C00F91FF90EF90DF90CF90BF90AF909F90E2
S11311D008958F929F92AF92BF92CF92DF92EF9237
S11311E0FF920F931F93CF93DF9300D000D01F92F1
S11311F0CDB7DEB78C015B015D834C83822EE12C7D
S1131200992493946C0181E1C80ED11C0FB6F89413
S11312100F92F801F28CFF2091F1C680D780B501BE
S1131220C8010E947707811019C0FA94F801F28E60
S113123080819181892B29F40E94A20EF801938365
S11312408283F80180858823B1F0C80108960E9442
S1131250700D882381F00E9460060DC0F801D782CA
S1131260C6828189882339F0C80141960E94700D95
S113127081110E9460060F900FBE81E064C08C81D2
S11312809D81892B21F40F900FBE80E05CC0E1109A
S113129005C0CE0101960E94B80DE92C0F900FBE37
S11312A00E94670B0FB6F8940F92F801858D8F3F5B
S11312B009F4158EF801868D8F3F09F4168E0F9070
S11312C00FBEBE016C5F7F4FCE0101960E94C30D1D
S11312D081112BC00FB6F8940F92F801828D0F90F4
S11312E00FBE81111CC080819181892B49F40FB6F6
S11312F0F8940F92828193810E94000E0F900FBE8A
S11313006C817D81C6010E945E0DC8010E94910717
S11313100E94280C81117ACF0E94600677CFC80101
S11313200E9491070E94280C71CFC8010E94910766
S11313300E94280C0FB6F8940F92F801828D0F903A
S11313400FBE811163CF0F900F900F900F900F90ED
S1131350DF91CF911F910F91FF90EF90DF90CF908D
S1131360BF90AF909F908F900895E0911B05F091EE
S11313701C058081811107C08FEF9FEF9093F304C8
S11313808093F2040895E0911B05F0911C050580FB
S1131390F681E02D0680F781E02D82819381909380
S11313A0F3048093F2040895FF920F931F93CF9355
S11313B0DF93EC01F62E0091FA041091FB04809166
S11313C05C0590915D0502960E946E04CF3F8FEFFD
S11313D0D80769F4FF2059F060915C0570915D05B0
S11313E06E5F7F4F8DEF94E00E941C042FC0C00FEE
S11313F0D11FE0915C05F0915D05D383C283C017D2
S1131400D10768F460915C0570915D0580911905C0
S113141090911A056E5F7F4F0E943D0417C0609142
S11314205C0570915D0580911B0590911C056E5FB4
S11314307F4F0E943D048091F2049091F304C817F9
S1131440D90720F4D093F304C093F204DF91CF9131
S11314501F910F91FF9008954F925F926F927F9228
S11314608F929F92AF92BF92CF92DF92EF92FF92B0
S11314700F931F93CF93DF934C016B015A01290102
S1131480CA010E9453013C01892B09F4E4C08AE299
S113149090E00E945301EC01892B71F0788E6F8AE1
S11314A081E0A81AB1086A0C7B1CD6018C91898F43
S11314B08C91811105C018C0C3010E94ED01CBC0FD
S11314C0AE01465E5F4FF6013196BAE0CB0ED11CF9
S11314D0CF012191DA012D93AD01DC018C91882398
S11314E019F0CE16DF06A1F71AA2053008F004E0C1
S11314F00E8B0BA31CA26E01B2E0CB0ED11CC60155
S11315000E941804CE010C960E941804D987C8873B
S113151085E090E0801B91099D878C87DB8BCA8BCB
S11315201DA21EA21FA218A619A6A201B401C301DE
S11315300E94BF0599838883E114F10419F0F7012F
S1131540D183C0830FB6F8940F928091FC048F5F0F
S11315508093FC0480915C0590915D05892BD1F505
S1131560D0935D05C0935C058091FC04813009F043
S113157041C00FE215E00F2EFCE5EF2EF5E0FF2E43
S1131580F02DC8010E940A04075F1F4F0E151F05A6
S1131590C1F786E295E00E940A048DE195E00E947D
S11315A00A0480E195E00E940A0487E095E00E9425
S11315B00A048DEF94E00E940A0486E295E0909379
S11315C01C0580931B058DE195E090931A0580938B
S11315D0190510C08091F80481110CC0E0915C05DC
S11315E0F0915D0596898E89891720F0D0935D0569
S11315F0C0935C058091F4048F5F8093F4048E891A
S11316009091F904981710F48093F90490E09C01E8
S1131610220F331F220F331F220F331F820F931FFA
S1131620B601815D9A4F0E941C040F900FBE8091F9
S1131630F804882361F0E0915C05F0915D059689DA
S11316408E89981730F40E94600681E005C081E01D
S113165003C081E001C08FEFDF91CF911F910F9103
S1131660FF90EF90DF90CF90BF90AF909F908F90BE
S11316707F906F905F904F900895EF92FF920F9339
S11316800F2EF0EFEF2EF4E0FF2EF02D00E020E01F
S113169030E044E650E06BEE70E08BEB9CE00E949F
S11316A02C0A813081F4F8948FEF9FEF9093F30428
S11316B08093F20481E08093F8041092FB0410926A
S11316C0FA040E942B060F91FF90EF9008958091E9
S11316D0EF048F5F8093EF040895CF92DF92EF922F
S11316E0FF920F931F93CF93DF938091EF048111A7
S11316F099C0E090FA04F090FB048FEFE81AF80A1E
S1131700F092FB04E092FA04E114F104B9F480913C
S11317101B0590911C052091190530911A053093F1
S11317201C0520931B0590931A058093190580913D
S1131730F5048F5F8093F5040E94B5098091F2044B
S11317409091F304E816F90610F4D12C53C0D12C6F
S1131750CC24C394E0911B05F0911C058081811178
S113176007C08FEF9FEF9093F3048093F20442C07D
S1131770E0911B05F0911C050580F681E02DC681E2
S1131780D7818A819B81E816F90628F49093F304A3
S11317908093F2042FC08E010E5F1F4FC8010E9478
S11317A06E048C899D89892B21F0CE010C960E94B0
S11317B06E048E899091F904981710F48093F904BB
S11317C090E09C01220F331F220F331F220F331F7F
S11317D0820F931FB801815D9A4F0E941C04E0910F
S11317E05C05F0915D059E898689981708F4B2CF4F
S11317F0DC2CB0CFE0915C05F0915D05868990E02A
S1131800FC01EE0FFF1FEE0FFF1FEE0FFF1F8E0FE9
S11318109F1FFC01E15DFA4F8081823048F0DD2496
S1131820D39406C08091F7048F5F8093F704D12C82
S11318308091F604882311F0DD24D3948D2DDF915B
S1131840CF911F910F91FF90EF90DF90CF9008956B
S1131850DF92EF92FF920F931F93CF93DF930FB614
S1131860F8940F928091EF0481508093EF0480915B
S1131870EF0481115FC08091FC04811133C05DC00D
S1131880D7011596ED91FC911697C681D781CE01AB
S11318900C960E946E048E010E5F1F4FC8010E94B9
S11318A06E048E899091F904981710F48093F904CA
S11318B090E09C01220F331F220F331F220F331F8E
S11318C0820F931FB801815D9A4F0E941C04E0911E
S11318D05C05F0915D059E898689981768F0D09221
S11318E0F6040AC0C0E0D0E00F2EF0E1EF2EF5E0E0
S11318F0FF2EF02DDD24D394F70180818111C0CF18
S1131900CD2B11F00E94B509C091F704CC2351F0FE
S1131910D1E00E946D0B8111D093F604C150C9F738
S11319201092F7048091F604882331F00E94600637
S113193081E003C080E001C080E00F900FBEDF9122
S1131940CF911F910F91FF90EF90DF900895CF9367
S1131950DF93EC01892B51F00E94670B60E0CE010C
S11319600E94D4090E94280C811102C00E946006C2
S1131970DF91CF91089507E015E00F2EFFE2EF2EDF
S1131980F5E0FF2EF02D29C00E94670BD801CC9101
S11319900E94280CCC2309F10FB6F8940F92D801B9
S11319A01596ED91FC911697C681D781CE010296CA
S11319B00E946E048091FC0481508093FC04809109
S11319C006058150809306050F900FBE8F89988D70
S11319D00E94ED01CE010E94ED0180910605811166
S11319E0D3CFF70180818230C0F30E946006F5CF27
S11319F08091EF04882321F081E08093F604089518
S1131A001092F6042091F904822F90E0FC01EE0F6D
S1131A10FF1FEE0FFF1FEE0FFF1FE80FF91FE15D21
S1131A20FA4F3081311111C02150822F90E0FC0116
S1131A30EE0FFF1FEE0FFF1FEE0FFF1FE80FF91F42
S1131A40E15DFA4F3081332379F3AC01440F551F24
S1131A50440F551F440F551F480F591FDA01A15D4C
S1131A60BA4F1196ED91FC9112970280F381E02D0B
S1131A701296FC93EE9311974E5C5A4FE417F507B8
S1131A8029F442815381FD0152834183FC01EE0F0D
S1131A90FF1FEE0FFF1FEE0FFF1F8E0F9F1FFC0196
S1131AA0E15DFA4F0180F281E02D86819781909368
S1131AB05D0580935C052093F9040895CF93DF932B
S1131AC0EB0160915C0570915D05645F7F4F0E943E
S1131AD03D0461E0CE010E94D409DF91CF910895C5
S1131AE00F931F93CF93DF93DC011596ED91FC9137
S1131AF01697C681D7818E01045F1F4FC8010E94CB
S1131B006E048091EF0481111CC00A501109C801B0
S1131B100E946E048E899091F904981710F48093B2
S1131B20F90490E09C01220F331F220F331F220F70
S1131B30331F820F931FB801815D9A4F0E941C04CA
S1131B4005C0B80180E195E00E941C04E0915C05A9
S1131B50F0915D059E898689891720F481E0809340
S1131B60F60401C080E0DF91CF911F910F91089599
S1131B702091F504FC0120832091FA043091FB04A8
S1131B803283218308950FB6F8940F924091FA049A
S1131B905091FB04DB012D913C912F3FBFEF3B079C
S1131BA019F1E091F504DC01FC91FE1739F011966E
S1131BB0ED91FC9112974E175F07C0F4DC0111966A
S1131BC0ED91FC911297DA01AE1BBF0BA217B3077C
S1131BD078F4DB01E41BF50B2E0F3F1F2D933C9390
S1131BE00E94B80D80E005C080E003C081E001C020
S1131BF081E00F900FBE089581E08093F60408956C
S1131C000F931F93CF93DF93FC01892B09F455C0E5
S1131C102689A0915C05B0915D0556968C91281794
S1131C2008F04BC084859585992364F0A0915C05E8
S1131C30B0915D0556963C9185E090E0831B910937
S1131C409587848730E0C901880F991F880F991FF1
S1131C50880F991F280F391F215D3A4F828593857C
S1131C608217930719F58F01EF012296CE010E9486
S1131C706E04E0915C05F0915D058689F801868B20
S1131C809091F904981710F48093F90490E09C0162
S1131C90220F331F220F331F220F331F820F931F74
S1131CA0BE01815D9A4F0E941C0407C0A0915C058F
S1131CB0B0915D0556968C91868BDF91CF911F91E3
S1131CC00F9108950F931F93CF93DF93FC01892BFA
S1131CD079F184A1815084A3268993A1291751F114
S1131CE081112AC0EF018F010E5F1F4FC8010E94AE
S1131CF06E048BA18E8B25E030E0281B31093D87D3
S1131D002C879091F904981710F48093F90490E0CB
S1131D109C01220F331F220F331F220F331F820F08
S1131D20931FB801815D9A4F0E941C0481E005C095
S1131D3080E003C080E001C080E0DF91CF911F917B
S1131D400F91089580915C0590915D05892B39F080
S1131D50E0915C05F0915D0584A18F5F84A380917F
S1131D605C0590915D050895FB01DC0102C00190C2
S1131D700D9241505040D8F70895FB01DC018D913C
S1131D80019080190110D9F3990B0895F894FFCFAD
S1131D90E7036B6579706164204F4E004C43442027
S1131DA04F4E0057656C636F6D65005061737377B8
S1131DB06F72643A00636865636B204F4E00416341
S1131DC063657373206772616E7465640041636355
S1131DD06573732064656E6965640031323334352C
S1131DE036373800313233413435364237383943A7
S1131DF02A302344010501060107000002030204FE
S1131E000205020648656C6C6F004C4344004B6548
S1131E107970616400636865636B0049444C4500F4
S9030000FC
