Archive member included to satisfy reference by file (symbol)

c:/program files (x86)/atmel/studio/7.0/toolchain/avr8/avr8-gnu-toolchain/bin/../lib/gcc/avr/5.4.0/avr5\libgcc.a(_exit.o)
                              c:/program files (x86)/atmel/studio/7.0/toolchain/avr8/avr8-gnu-toolchain/bin/../lib/gcc/avr/5.4.0/../../../../avr/lib/avr5/crtatmega32.o (exit)
c:/program files (x86)/atmel/studio/7.0/toolchain/avr8/avr8-gnu-toolchain/bin/../lib/gcc/avr/5.4.0/avr5\libgcc.a(_copy_data.o)
                              app_tasks.o (__do_copy_data)
c:/program files (x86)/atmel/studio/7.0/toolchain/avr8/avr8-gnu-toolchain/bin/../lib/gcc/avr/5.4.0/avr5\libgcc.a(_clear_bss.o)
                              app_tasks.o (__do_clear_bss)
c:/program files (x86)/atmel/studio/7.0/toolchain/avr8/avr8-gnu-toolchain/bin/../lib/gcc/avr/5.4.0/../../../../avr/lib/avr5\libc.a(memcpy.o)
                              queue.o (memcpy)
c:/program files (x86)/atmel/studio/7.0/toolchain/avr8/avr8-gnu-toolchain/bin/../lib/gcc/avr/5.4.0/../../../../avr/lib/avr5\libc.a(strcmp.o)
                              app_tasks.o (strcmp)

Allocating common symbols
Common symbol       size              file

xQueueRegistry      0x20              queue.o

Discarded input sections

 .data          0x00000000        0x0 c:/program files (x86)/atmel/studio/7.0/toolchain/avr8/avr8-gnu-toolchain/bin/../lib/gcc/avr/5.4.0/../../../../avr/lib/avr5/crtatmega32.o
 .bss           0x00000000        0x0 c:/program files (x86)/atmel/studio/7.0/toolchain/avr8/avr8-gnu-toolchain/bin/../lib/gcc/avr/5.4.0/../../../../avr/lib/avr5/crtatmega32.o
 .text          0x00000000        0x0 app_tasks.o
 .data          0x00000000        0x0 app_tasks.o
 .bss           0x00000000        0x0 app_tasks.o
 .text          0x00000000        0x0 heap_2.o
 .data          0x00000000        0x0 heap_2.o
 .bss           0x00000000        0x0 heap_2.o
 .text.xPortGetFreeHeapSize
                0x00000000        0xa heap_2.o
 .text.vPortInitialiseBlocks
                0x00000000        0x2 heap_2.o
 .text          0x00000000        0x0 keypad.o
 .data          0x00000000        0x0 keypad.o
 .bss           0x00000000        0x0 keypad.o
 .text          0x00000000        0x0 keypad_config.o
 .data          0x00000000        0x0 keypad_config.o
 .bss           0x00000000        0x0 keypad_config.o
Memory Configuration

Name             Origin             Length             Attributes
text             0x00000000         0x00008000         xr
data             0x00800060         0x00000800         rw !x
eeprom           0x00810000         0x00000400         rw !x
fuse             0x00820000         0x00000002         rw !x
lock             0x00830000         0x00000400         rw !x
signature        0x00840000         0x00000400         rw !x
user_signatures  0x00850000         0x00000400         rw !x
*default*        0x00000000         0xffffffff

Linker script and memory map

LOAD c:/program files (x86)/atmel/studio/7.0/toolchain/avr8/avr8-gnu-toolchain/bin/../lib/gcc/avr/5.4.0/../../../../avr/lib/avr5/crtatmega32.o
LOAD app_tasks.o
LOAD heap_2.o
LOAD keypad.o
LOAD keypad_config.o
LOAD LCD_Lib.o
LOAD list.o
LOAD main.o
LOAD MCAL_GPIO.o
LOAD port.o
LOAD queue.o
LOAD tasks.o
START GROUP
LOAD c:/program files (x86)/atmel/studio/7.0/toolchain/avr8/avr8-gnu-toolchain/bin/../lib/gcc/avr/5.4.0/../../../../avr/lib/avr5\libm.a
END GROUP
START GROUP
LOAD c:/program files (x86)/atmel/studio/7.0/toolchain/avr8/avr8-gnu-toolchain/bin/../lib/gcc/avr/5.4.0/avr5\libgcc.a
LOAD c:/program files (x86)/atmel/studio/7.0/toolchain/avr8/avr8-gnu-toolchain/bin/../lib/gcc/avr/5.4.0/../../../../avr/lib/avr5\libm.a
LOAD c:/program files (x86)/atmel/studio/7.0/toolchain/avr8/avr8-gnu-toolchain/bin/../lib/gcc/avr/5.4.0/../../../../avr/lib/avr5\libc.a
LOAD c:/program files (x86)/atmel/studio/7.0/toolchain/avr8/avr8-gnu-toolchain/bin/../lib/gcc/avr/5.4.0/../../../../avr/lib/avr5\libatmega32.a
END GROUP
                0x00000000                __TEXT_REGION_ORIGIN__ = DEFINED (__TEXT_REGION_ORIGIN__)?__TEXT_REGION_ORIGIN__:0x0
                [0x00800060]                __DATA_REGION_ORIGIN__ = DEFINED (__DATA_REGION_ORIGIN__)?__DATA_REGION_ORIGIN__:0x800060
                [0x00008000]                __TEXT_REGION_LENGTH__ = DEFINED (__TEXT_REGION_LENGTH__)?__TEXT_REGION_LENGTH__:0x20000
                [0x00000800]                __DATA_REGION_LENGTH__ = DEFINED (__DATA_REGION_LENGTH__)?__DATA_REGION_LENGTH__:0xffa0
                [0x00000400]                __EEPROM_REGION_LENGTH__ = DEFINED (__EEPROM_REGION_LENGTH__)?__EEPROM_REGION_LENGTH__:0x10000
                [0x00000002]                __FUSE_REGION_LENGTH__ = DEFINED (__FUSE_REGION_LENGTH__)?__FUSE_REGION_LENGTH__:0x400
                0x00000400                __LOCK_REGION_LENGTH__ = DEFINED (__LOCK_REGION_LENGTH__)?__LOCK_REGION_LENGTH__:0x400
                0x00000400                __SIGNATURE_REGION_LENGTH__ = DEFINED (__SIGNATURE_REGION_LENGTH__)?__SIGNATURE_REGION_LENGTH__:0x400
                0x00000400                __USER_SIGNATURE_REGION_LENGTH__ = DEFINED (__USER_SIGNATURE_REGION_LENGTH__)?__USER_SIGNATURE_REGION_LENGTH__:0x400

.hash
 *(.hash)

.dynsym
 *(.dynsym)

.dynstr
 *(.dynstr)

.gnu.version
 *(.gnu.version)

.gnu.version_d
 *(.gnu.version_d)

.gnu.version_r
 *(.gnu.version_r)

.rel.init
 *(.rel.init)

.rela.init
 *(.rela.init)

.rel.text
 *(.rel.text)
 *(.rel.text.*)
 *(.rel.gnu.linkonce.t*)

.rela.text
 *(.rela.text)
 *(.rela.text.*)
 *(.rela.gnu.linkonce.t*)

.rel.fini
 *(.rel.fini)

.rela.fini
 *(.rela.fini)

.rel.rodata
 *(.rel.rodata)
 *(.rel.rodata.*)
 *(.rel.gnu.linkonce.r*)

.rela.rodata
 *(.rela.rodata)
 *(.rela.rodata.*)
 *(.rela.gnu.linkonce.r*)

.rel.data
 *(.rel.data)
 *(.rel.data.*)
 *(.rel.gnu.linkonce.d*)

.rela.data
 *(.rela.data)
 *(.rela.data.*)
 *(.rela.gnu.linkonce.d*)

.rel.ctors
 *(.rel.ctors)

.rela.ctors
 *(.rela.ctors)

.rel.dtors
 *(.rel.dtors)

.rela.dtors
 *(.rela.dtors)

.rel.got
 *(.rel.got)

.rela.got
 *(.rela.got)

.rel.bss
 *(.rel.bss)

.rela.bss
 *(.rela.bss)

.rel.plt
 *(.rel.plt)

.rela.plt
 *(.rela.plt)

.text           0x00000000     0x1d90
 *(.vectors)
 .vectors       0x00000000       0x54 c:/program files (x86)/atmel/studio/7.0/toolchain/avr8/avr8-gnu-toolchain/bin/../lib/gcc/avr/5.4.0/../../../../avr/lib/avr5/crtatmega32.o
                0x00000000                __vector_default
                0x00000000                __vectors
 *(.vectors)
 *(.progmem.gcc*)
                0x00000054                . = ALIGN (0x2)
                0x00000054                __trampolines_start = .
 *(.trampolines)
 .trampolines   0x00000054        0x0 linker stubs
 *(.trampolines*)
                0x00000054                __trampolines_end = .
 *libprintf_flt.a:*(.progmem.data)
 *libc.a:*(.progmem.data)
 *(.progmem*)
                0x00000054                . = ALIGN (0x2)
 *(.jumptables)
 *(.jumptables*)
 *(.lowtext)
 *(.lowtext*)
                0x00000054                __ctors_start = .
 *(.ctors)
                0x00000054                __ctors_end = .
                0x00000054                __dtors_start = .
 *(.dtors)
                0x00000054                __dtors_end = .
 SORT(*)(.ctors)
 SORT(*)(.dtors)
 *(.init0)
 .init0         0x00000054        0x0 c:/program files (x86)/atmel/studio/7.0/toolchain/avr8/avr8-gnu-toolchain/bin/../lib/gcc/avr/5.4.0/../../../../avr/lib/avr5/crtatmega32.o
                0x00000054                __init
 *(.init0)
 *(.init1)
 *(.init1)
 *(.init2)
 .init2         0x00000054        0xc c:/program files (x86)/atmel/studio/7.0/toolchain/avr8/avr8-gnu-toolchain/bin/../lib/gcc/avr/5.4.0/../../../../avr/lib/avr5/crtatmega32.o
 *(.init2)
 *(.init3)
 *(.init3)
 *(.init4)
 .init4         0x00000060       0x16 c:/program files (x86)/atmel/studio/7.0/toolchain/avr8/avr8-gnu-toolchain/bin/../lib/gcc/avr/5.4.0/avr5\libgcc.a(_copy_data.o)
                0x00000060                __do_copy_data
 .init4         0x00000076       0x10 c:/program files (x86)/atmel/studio/7.0/toolchain/avr8/avr8-gnu-toolchain/bin/../lib/gcc/avr/5.4.0/avr5\libgcc.a(_clear_bss.o)
                0x00000076                __do_clear_bss
 *(.init4)
 *(.init5)
 *(.init5)
 *(.init6)
 *(.init6)
 *(.init7)
 *(.init7)
 *(.init8)
 *(.init8)
 *(.init9)
 .init9         0x00000086        0x8 c:/program files (x86)/atmel/studio/7.0/toolchain/avr8/avr8-gnu-toolchain/bin/../lib/gcc/avr/5.4.0/../../../../avr/lib/avr5/crtatmega32.o
 *(.init9)
 *(.text)
 .text          0x0000008e        0x4 c:/program files (x86)/atmel/studio/7.0/toolchain/avr8/avr8-gnu-toolchain/bin/../lib/gcc/avr/5.4.0/../../../../avr/lib/avr5/crtatmega32.o
                0x0000008e                __vector_1
                0x0000008e                __vector_12
                0x0000008e                __bad_interrupt
                0x0000008e                __vector_6
                0x0000008e                __vector_3
                0x0000008e                __vector_11
                0x0000008e                __vector_13
                0x0000008e                __vector_17
                0x0000008e                __vector_19
                0x0000008e                __vector_5
                0x0000008e                __vector_4
                0x0000008e                __vector_9
                0x0000008e                __vector_2
                0x0000008e                __vector_15
                0x0000008e                __vector_8
                0x0000008e                __vector_14
                0x0000008e                __vector_10
                0x0000008e                __vector_16
                0x0000008e                __vector_18
                0x0000008e                __vector_20
                0x00000092                . = ALIGN (0x2)
 *(.text.*)
 .text.vTask_KeyPad
                0x00000092       0x64 app_tasks.o
                0x00000092                vTask_KeyPad
 .text.vTask_LCD
                0x000000f6      0x134 app_tasks.o
                0x000000f6                vTask_LCD
 .text.vTask_Password_Check
                0x0000022a       0x7c app_tasks.o
                0x0000022a                vTask_Password_Check
 .text.pvPortMalloc
                0x000002a6      0x134 heap_2.o
                0x000002a6                pvPortMalloc
 .text.vPortFree
                0x000003da       0x66 heap_2.o
                0x000003da                vPortFree
 .text.Keypad_Init
                0x00000440       0xb6 keypad.o
                0x00000440                Keypad_Init
 .text.Keypad_getkey
                0x000004f6      0x21c keypad.o
                0x000004f6                Keypad_getkey
 .text.LCD_READ
                0x00000712       0x1a LCD_Lib.o
 .text.LCD_Write_4bit_mode
                0x0000072c       0x60 LCD_Lib.o
 .text.LCD_Write_Command
                0x0000078c        0xa LCD_Lib.o
                0x0000078c                LCD_Write_Command
 .text.LCD_Go_To_X_Y
                0x00000796       0x1c LCD_Lib.o
                0x00000796                LCD_Go_To_X_Y
 .text.LCD_Write_Character
                0x000007b2        0xa LCD_Lib.o
                0x000007b2                LCD_Write_Character
 .text.LCD_Write_String
                0x000007bc       0x1e LCD_Lib.o
                0x000007bc                LCD_Write_String
 .text.LCD_Initialization
                0x000007da       0x3a LCD_Lib.o
                0x000007da                LCD_Initialization
 .text.vListInitialise
                0x00000814       0x1c list.o
                0x00000814                vListInitialise
 .text.vListInitialiseItem
                0x00000830        0x8 list.o
                0x00000830                vListInitialiseItem
 .text.vListInsertEnd
                0x00000838       0x42 list.o
                0x00000838                vListInsertEnd
 .text.vListInsert
                0x0000087a       0x62 list.o
                0x0000087a                vListInsert
 .text.uxListRemove
                0x000008dc       0x4c list.o
                0x000008dc                uxListRemove
 .text.main     0x00000928       0x7c main.o
                0x00000928                main
 .text.GPIO_Init
                0x000009a4       0xbe MCAL_GPIO.o
                0x000009a4                GPIO_Init
 .text.GPIO_Write
                0x00000a62       0x6c MCAL_GPIO.o
                0x00000a62                GPIO_Write
 .text.GPIO_Read
                0x00000ace       0xb0 MCAL_GPIO.o
                0x00000ace                GPIO_Read
 .text.pxPortInitialiseStack
                0x00000b7e       0xd8 port.o
                0x00000b7e                pxPortInitialiseStack
 .text.xPortStartScheduler
                0x00000c56       0x6a port.o
                0x00000c56                xPortStartScheduler
 .text.vPortYield
                0x00000cc0       0xb2 port.o
                0x00000cc0                vPortYield
 .text.vPortYieldFromTick
                0x00000d72       0xb8 port.o
                0x00000d72                vPortYieldFromTick
 .text.__vector_7
                0x00000e2a        0x6 port.o
                0x00000e2a                __vector_7
 .text.prvCopyDataToQueue
                0x00000e30       0xbe queue.o
 .text.prvCopyDataFromQueue
                0x00000eee       0x34 queue.o
 .text.prvUnlockQueue
                0x00000f22       0x9a queue.o
 .text.xQueueGenericReset
                0x00000fbc       0x7a queue.o
                0x00000fbc                xQueueGenericReset
 .text.xQueueGenericCreate
                0x00001036       0x5a queue.o
                0x00001036                xQueueGenericCreate
 .text.xQueueGenericSend
                0x00001090      0x142 queue.o
                0x00001090                xQueueGenericSend
 .text.xQueueGenericReceive
                0x000011d2      0x198 queue.o
                0x000011d2                xQueueGenericReceive
 .text.prvResetNextTaskUnblockTime
                0x0000136a       0x3e tasks.o
 .text.prvAddCurrentTaskToDelayedList
                0x000013a8       0xb0 tasks.o
 .text.xTaskCreate
                0x00001458      0x222 tasks.o
                0x00001458                xTaskCreate
 .text.vTaskStartScheduler
                0x0000167a       0x54 tasks.o
                0x0000167a                vTaskStartScheduler
 .text.vTaskSuspendAll
                0x000016ce        0xc tasks.o
                0x000016ce                vTaskSuspendAll
 .text.xTaskIncrementTick
                0x000016da      0x176 tasks.o
                0x000016da                xTaskIncrementTick
 .text.xTaskResumeAll
                0x00001850       0xfe tasks.o
                0x00001850                xTaskResumeAll
 .text.vTaskDelay
                0x0000194e       0x28 tasks.o
                0x0000194e                vTaskDelay
 .text.prvIdleTask
                0x00001976       0x7a tasks.o
 .text.vTaskSwitchContext
                0x000019f0       0xcc tasks.o
                0x000019f0                vTaskSwitchContext
 .text.vTaskPlaceOnEventList
                0x00001abc       0x24 tasks.o
                0x00001abc                vTaskPlaceOnEventList
 .text.xTaskRemoveFromEventList
                0x00001ae0       0x90 tasks.o
                0x00001ae0                xTaskRemoveFromEventList
 .text.vTaskSetTimeOutState
                0x00001b70       0x16 tasks.o
                0x00001b70                vTaskSetTimeOutState
 .text.xTaskCheckForTimeOut
                0x00001b86       0x72 tasks.o
                0x00001b86                xTaskCheckForTimeOut
 .text.vTaskMissedYield
                0x00001bf8        0x8 tasks.o
                0x00001bf8                vTaskMissedYield
 .text.vTaskPriorityInherit
                0x00001c00       0xc4 tasks.o
                0x00001c00                vTaskPriorityInherit
 .text.xTaskPriorityDisinherit
                0x00001cc4       0x80 tasks.o
                0x00001cc4                xTaskPriorityDisinherit
 .text.pvTaskIncrementMutexHeldCount
                0x00001d44       0x24 tasks.o
                0x00001d44                pvTaskIncrementMutexHeldCount
 .text.avr-libc
                0x00001d68       0x12 c:/program files (x86)/atmel/studio/7.0/toolchain/avr8/avr8-gnu-toolchain/bin/../lib/gcc/avr/5.4.0/../../../../avr/lib/avr5\libc.a(memcpy.o)
                0x00001d68                memcpy
 .text.avr-libc
                0x00001d7a       0x12 c:/program files (x86)/atmel/studio/7.0/toolchain/avr8/avr8-gnu-toolchain/bin/../lib/gcc/avr/5.4.0/../../../../avr/lib/avr5\libc.a(strcmp.o)
                0x00001d7a                strcmp
                0x00001d8c                . = ALIGN (0x2)
 *(.fini9)
 .fini9         0x00001d8c        0x0 c:/program files (x86)/atmel/studio/7.0/toolchain/avr8/avr8-gnu-toolchain/bin/../lib/gcc/avr/5.4.0/avr5\libgcc.a(_exit.o)
                0x00001d8c                _exit
                0x00001d8c                exit
 *(.fini9)
 *(.fini8)
 *(.fini8)
 *(.fini7)
 *(.fini7)
 *(.fini6)
 *(.fini6)
 *(.fini5)
 *(.fini5)
 *(.fini4)
 *(.fini4)
 *(.fini3)
 *(.fini3)
 *(.fini2)
 *(.fini2)
 *(.fini1)
 *(.fini1)
 *(.fini0)
 .fini0         0x00001d8c        0x4 c:/program files (x86)/atmel/studio/7.0/toolchain/avr8/avr8-gnu-toolchain/bin/../lib/gcc/avr/5.4.0/avr5\libgcc.a(_exit.o)
 *(.fini0)
                0x00001d90                _etext = .

.data           0x00800060       0x90 load address 0x00001d90
                0x00800060                PROVIDE (__data_start, .)
 *(.data)
 *(.data*)
 .data.xFreeBytesRemaining
                0x00800060        0x2 heap_2.o
 *(.gnu.linkonce.d*)
 *(.rodata)
 *(.rodata*)
 .rodata.str1.1
                0x00800062       0x49 app_tasks.o
 .rodata.g_CurrentPassword
                0x008000ab        0x9 app_tasks.o
 .rodata.g_Keypad_Map
                0x008000b4       0x10 keypad_config.o
                0x008000b4                g_Keypad_Map
 .rodata.g_Keypad_Row_Config
                0x008000c4        0x8 keypad_config.o
                0x008000c4                g_Keypad_Row_Config
 .rodata.g_Keypad_Col_Config
                0x008000cc        0x8 keypad_config.o
                0x008000cc                g_Keypad_Col_Config
 .rodata.str1.1
                0x008000d4       0x17 main.o
 .rodata.str1.1
                0x008000eb        0x5 tasks.o
 *(.gnu.linkonce.r*)
                0x008000f0                . = ALIGN (0x2)
                0x008000f0                _edata = .
                0x008000f0                PROVIDE (__data_end, .)

.bss            0x008000f0      0x46e
                0x008000f0                PROVIDE (__bss_start, .)
 *(.bss)
 *(.bss*)
 .bss.CheckPasswordSemaphore
                0x008000f0        0x2 app_tasks.o
                0x008000f0                CheckPasswordSemaphore
 .bss.LCD_Queue
                0x008000f2        0x2 app_tasks.o
                0x008000f2                LCD_Queue
 .bss.g_Password
                0x008000f4        0xa app_tasks.o
 .bss.xHeapHasBeenInitialised.2078
                0x008000fe        0x1 heap_2.o
 .bss.xEnd      0x008000ff        0x4 heap_2.o
 .bss.xStart    0x00800103        0x4 heap_2.o
 .bss.ucHeap    0x00800107      0x3e8 heap_2.o
 .bss.uxSchedulerSuspended
                0x008004ef        0x1 tasks.o
 .bss.xIdleTaskHandle
                0x008004f0        0x2 tasks.o
 .bss.xNextTaskUnblockTime
                0x008004f2        0x2 tasks.o
 .bss.uxTaskNumber
                0x008004f4        0x1 tasks.o
 .bss.xNumOfOverflows
                0x008004f5        0x1 tasks.o
 .bss.xYieldPending
                0x008004f6        0x1 tasks.o
 .bss.uxPendedTicks
                0x008004f7        0x1 tasks.o
 .bss.xSchedulerRunning
                0x008004f8        0x1 tasks.o
 .bss.uxTopReadyPriority
                0x008004f9        0x1 tasks.o
 .bss.xTickCount
                0x008004fa        0x2 tasks.o
 .bss.uxCurrentNumberOfTasks
                0x008004fc        0x1 tasks.o
 .bss.xSuspendedTaskList
                0x008004fd        0x9 tasks.o
 .bss.uxDeletedTasksWaitingCleanUp
                0x00800506        0x1 tasks.o
 .bss.xTasksWaitingTermination
                0x00800507        0x9 tasks.o
 .bss.xPendingReadyList
                0x00800510        0x9 tasks.o
 .bss.pxOverflowDelayedTaskList
                0x00800519        0x2 tasks.o
 .bss.pxDelayedTaskList
                0x0080051b        0x2 tasks.o
 .bss.xDelayedTaskList2
                0x0080051d        0x9 tasks.o
 .bss.xDelayedTaskList1
                0x00800526        0x9 tasks.o
 .bss.pxReadyTasksLists
                0x0080052f       0x2d tasks.o
 .bss.pxCurrentTCB
                0x0080055c        0x2 tasks.o
                0x0080055c                pxCurrentTCB
 *(COMMON)
                0x0080055e                PROVIDE (__bss_end, .)
                0x00001d90                __data_load_start = LOADADDR (.data)
                0x00001e20                __data_load_end = (__data_load_start + SIZEOF (.data))

.noinit         0x0080055e        0x0
                [!provide]                PROVIDE (__noinit_start, .)
 *(.noinit*)
                [!provide]                PROVIDE (__noinit_end, .)
                0x0080055e                _end = .
                [!provide]                PROVIDE (__heap_start, .)

.eeprom         0x00810000        0x0
 *(.eeprom*)
                0x00810000                __eeprom_end = .

.fuse
 *(.fuse)
 *(.lfuse)
 *(.hfuse)
 *(.efuse)

.lock
 *(.lock*)

.signature
 *(.signature*)

.user_signatures
 *(.user_signatures*)

.stab
 *(.stab)

.stabstr
 *(.stabstr)

.stab.excl
 *(.stab.excl)

.stab.exclstr
 *(.stab.exclstr)

.stab.index
 *(.stab.index)

.stab.indexstr
 *(.stab.indexstr)

.comment        0x00000000       0x30
 *(.comment)
 .comment       0x00000000       0x30 app_tasks.o
                                 0x31 (size before relaxing)
 .comment       0x00000030       0x31 heap_2.o
 .comment       0x00000030       0x31 keypad.o
 .comment       0x00000030       0x31 keypad_config.o
 .comment       0x00000030       0x31 LCD_Lib.o
 .comment       0x00000030       0x31 list.o
 .comment       0x00000030       0x31 main.o
 .comment       0x00000030       0x31 MCAL_GPIO.o
 .comment       0x00000030       0x31 port.o
 .comment       0x00000030       0x31 queue.o
 .comment       0x00000030       0x31 tasks.o

.note.gnu.avr.deviceinfo
                0x00000000       0x3c
 .note.gnu.avr.deviceinfo
                0x00000000       0x3c c:/program files (x86)/atmel/studio/7.0/toolchain/avr8/avr8-gnu-toolchain/bin/../lib/gcc/avr/5.4.0/../../../../avr/lib/avr5/crtatmega32.o

.note.gnu.build-id
 *(.note.gnu.build-id)

.debug
 *(.debug)

.line
 *(.line)

.debug_srcinfo
 *(.debug_srcinfo)

.debug_sfnames
 *(.debug_sfnames)

.debug_aranges  0x00000000      0x3f8
 *(.debug_aranges)
 .debug_aranges
                0x00000000       0x30 app_tasks.o
 .debug_aranges
                0x00000030       0x38 heap_2.o
 .debug_aranges
                0x00000068       0x28 keypad.o
 .debug_aranges
                0x00000090       0x18 keypad_config.o
 .debug_aranges
                0x000000a8       0x58 LCD_Lib.o
 .debug_aranges
                0x00000100       0x40 list.o
 .debug_aranges
                0x00000140       0x20 main.o
 .debug_aranges
                0x00000160       0x30 MCAL_GPIO.o
 .debug_aranges
                0x00000190       0x48 port.o
 .debug_aranges
                0x000001d8       0xc0 queue.o
 .debug_aranges
                0x00000298      0x160 tasks.o

.debug_pubnames
 *(.debug_pubnames)

.debug_info     0x00000000     0x516c
 *(.debug_info .gnu.linkonce.wi.*)
 .debug_info    0x00000000      0x4e6 c:/program files (x86)/atmel/studio/7.0/toolchain/avr8/avr8-gnu-toolchain/bin/../lib/gcc/avr/5.4.0/../../../../avr/lib/avr5/crtatmega32.o
 .debug_info    0x000004e6      0x6fa app_tasks.o
 .debug_info    0x00000be0      0x33a heap_2.o
 .debug_info    0x00000f1a      0x359 keypad.o
 .debug_info    0x00001273      0x13d keypad_config.o
 .debug_info    0x000013b0      0x3b8 LCD_Lib.o
 .debug_info    0x00001768      0x2cd list.o
 .debug_info    0x00001a35      0x24c main.o
 .debug_info    0x00001c81      0x1fa MCAL_GPIO.o
 .debug_info    0x00001e7b      0x263 port.o
 .debug_info    0x000020de     0x1304 queue.o
 .debug_info    0x000033e2     0x1d8a tasks.o

.debug_abbrev   0x00000000     0x153b
 *(.debug_abbrev)
 .debug_abbrev  0x00000000      0x4a3 c:/program files (x86)/atmel/studio/7.0/toolchain/avr8/avr8-gnu-toolchain/bin/../lib/gcc/avr/5.4.0/../../../../avr/lib/avr5/crtatmega32.o
 .debug_abbrev  0x000004a3      0x1bf app_tasks.o
 .debug_abbrev  0x00000662      0x1ba heap_2.o
 .debug_abbrev  0x0000081c      0x128 keypad.o
 .debug_abbrev  0x00000944       0x91 keypad_config.o
 .debug_abbrev  0x000009d5      0x1ad LCD_Lib.o
 .debug_abbrev  0x00000b82       0xf8 list.o
 .debug_abbrev  0x00000c7a       0xb6 main.o
 .debug_abbrev  0x00000d30       0xca MCAL_GPIO.o
 .debug_abbrev  0x00000dfa      0x155 port.o
 .debug_abbrev  0x00000f4f      0x2bc queue.o
 .debug_abbrev  0x0000120b      0x330 tasks.o

.debug_line     0x00000000     0x2c96
 *(.debug_line .debug_line.* .debug_line_end)
 .debug_line    0x00000000       0x1a c:/program files (x86)/atmel/studio/7.0/toolchain/avr8/avr8-gnu-toolchain/bin/../lib/gcc/avr/5.4.0/../../../../avr/lib/avr5/crtatmega32.o
 .debug_line    0x0000001a      0x334 app_tasks.o
 .debug_line    0x0000034e      0x27c heap_2.o
 .debug_line    0x000005ca      0x245 keypad.o
 .debug_line    0x0000080f       0xb6 keypad_config.o
 .debug_line    0x000008c5      0x333 LCD_Lib.o
 .debug_line    0x00000bf8      0x1cb list.o
 .debug_line    0x00000dc3      0x108 main.o
 .debug_line    0x00000ecb      0x18a MCAL_GPIO.o
 .debug_line    0x00001055      0x288 port.o
 .debug_line    0x000012dd      0x911 queue.o
 .debug_line    0x00001bee     0x10a8 tasks.o

.debug_frame    0x00000000      0xb2c
 *(.debug_frame)
 .debug_frame   0x00000000       0x64 app_tasks.o
 .debug_frame   0x00000064       0x7c heap_2.o
 .debug_frame   0x000000e0       0x88 keypad.o
 .debug_frame   0x00000168       0xa8 LCD_Lib.o
 .debug_frame   0x00000210       0x88 list.o
 .debug_frame   0x00000298       0x24 main.o
 .debug_frame   0x000002bc       0x44 MCAL_GPIO.o
 .debug_frame   0x00000300       0x74 port.o
 .debug_frame   0x00000374      0x2b0 queue.o
 .debug_frame   0x00000624      0x508 tasks.o

.debug_str      0x00000000     0x17dc
 *(.debug_str)
 .debug_str     0x00000000      0x196 c:/program files (x86)/atmel/studio/7.0/toolchain/avr8/avr8-gnu-toolchain/bin/../lib/gcc/avr/5.4.0/../../../../avr/lib/avr5/crtatmega32.o
 .debug_str     0x00000196      0x345 app_tasks.o
                                0x389 (size before relaxing)
 .debug_str     0x000004db      0x173 heap_2.o
                                0x308 (size before relaxing)
 .debug_str     0x0000064e      0x14a keypad.o
                                0x2dd (size before relaxing)
 .debug_str     0x00000798       0x15 keypad_config.o
                                0x1f3 (size before relaxing)
 .debug_str     0x000007ad       0x8d LCD_Lib.o
                                0x298 (size before relaxing)
 .debug_str     0x0000083a      0x12a list.o
                                0x2bf (size before relaxing)
 .debug_str     0x00000964       0x45 main.o
                                0x22e (size before relaxing)
 .debug_str     0x000009a9       0x1c MCAL_GPIO.o
                                0x227 (size before relaxing)
 .debug_str     0x000009c5      0x118 port.o
                                0x2b8 (size before relaxing)
 .debug_str     0x00000add      0x4e9 queue.o
                                0x7f7 (size before relaxing)
 .debug_str     0x00000fc6      0x816 tasks.o
                                0xd0c (size before relaxing)

.debug_loc      0x00000000     0x46d4
 *(.debug_loc)
 .debug_loc     0x00000000      0x273 app_tasks.o
 .debug_loc     0x00000273      0x2ef heap_2.o
 .debug_loc     0x00000562      0x125 keypad.o
 .debug_loc     0x00000687      0x23a LCD_Lib.o
 .debug_loc     0x000008c1      0x145 list.o
 .debug_loc     0x00000a06      0x1a7 MCAL_GPIO.o
 .debug_loc     0x00000bad      0x2a0 port.o
 .debug_loc     0x00000e4d     0x1787 queue.o
 .debug_loc     0x000025d4     0x2100 tasks.o

.debug_macinfo
 *(.debug_macinfo)

.debug_weaknames
 *(.debug_weaknames)

.debug_funcnames
 *(.debug_funcnames)

.debug_typenames
 *(.debug_typenames)

.debug_varnames
 *(.debug_varnames)

.debug_pubtypes
 *(.debug_pubtypes)

.debug_ranges   0x00000000      0x418
 *(.debug_ranges)
 .debug_ranges  0x00000000       0x20 app_tasks.o
 .debug_ranges  0x00000020       0x28 heap_2.o
 .debug_ranges  0x00000048       0x18 keypad.o
 .debug_ranges  0x00000060       0x48 LCD_Lib.o
 .debug_ranges  0x000000a8       0x30 list.o
 .debug_ranges  0x000000d8       0x10 main.o
 .debug_ranges  0x000000e8       0x20 MCAL_GPIO.o
 .debug_ranges  0x00000108       0x38 port.o
 .debug_ranges  0x00000140      0x110 queue.o
 .debug_ranges  0x00000250      0x1c8 tasks.o

.debug_macro
 *(.debug_macro)
OUTPUT(RTOS_Alarm_Sys_RTOS.elf elf32-avr)
LOAD linker stubs
